{
  "contractName": "lcr_node",
  "abi": [
    {
      "inputs": [
        {
          "name": "_u",
          "type": "uint256"
        }
      ],
      "payable": false,
      "stateMutability": "nonpayable",
      "type": "constructor"
    },
    {
      "anonymous": false,
      "inputs": [
        {
          "indexed": true,
          "name": "_from",
          "type": "address"
        },
        {
          "indexed": true,
          "name": "_to",
          "type": "address"
        },
        {
          "indexed": false,
          "name": "val",
          "type": "uint256"
        }
      ],
      "name": "Sent",
      "type": "event"
    },
    {
      "anonymous": false,
      "inputs": [
        {
          "indexed": true,
          "name": "_leader",
          "type": "address"
        }
      ],
      "name": "LeaderElected",
      "type": "event"
    },
    {
      "constant": false,
      "inputs": [
        {
          "name": "_next",
          "type": "address"
        }
      ],
      "name": "setNextProcess",
      "outputs": [],
      "payable": false,
      "stateMutability": "nonpayable",
      "type": "function"
    },
    {
      "constant": true,
      "inputs": [],
      "name": "getNextProcess",
      "outputs": [
        {
          "name": "",
          "type": "address"
        }
      ],
      "payable": false,
      "stateMutability": "view",
      "type": "function"
    },
    {
      "constant": false,
      "inputs": [],
      "name": "msgFunction",
      "outputs": [],
      "payable": false,
      "stateMutability": "nonpayable",
      "type": "function"
    },
    {
      "constant": false,
      "inputs": [
        {
          "name": "_incoming",
          "type": "uint256"
        }
      ],
      "name": "trans",
      "outputs": [],
      "payable": false,
      "stateMutability": "nonpayable",
      "type": "function"
    },
    {
      "constant": true,
      "inputs": [],
      "name": "previewSend",
      "outputs": [
        {
          "name": "",
          "type": "uint256"
        }
      ],
      "payable": false,
      "stateMutability": "view",
      "type": "function"
    },
    {
      "constant": true,
      "inputs": [],
      "name": "getU",
      "outputs": [
        {
          "name": "",
          "type": "uint256"
        }
      ],
      "payable": false,
      "stateMutability": "view",
      "type": "function"
    },
    {
      "constant": true,
      "inputs": [],
      "name": "isLeader",
      "outputs": [
        {
          "name": "",
          "type": "bool"
        }
      ],
      "payable": false,
      "stateMutability": "view",
      "type": "function"
    }
  ],
  "bytecode": "0x608060405234801561001057600080fd5b5060405160208061050c83398101806040528101908080519060200190929190505050806000819055506000546001819055506000600260006101000a81548160ff0219169083600181111561006257fe5b021790555050610495806100776000396000f300608060405260043610610083576000357c0100000000000000000000000000000000000000000000000000000000900463ffffffff16806324d6147d1461008857806342d6aeca146100b3578063541a54d9146100ca5780636142fb3c146100f957806366c991391461012457806376308ee414610151578063e442eabf14610194575b600080fd5b34801561009457600080fd5b5061009d6101eb565b6040518082815260200191505060405180910390f35b3480156100bf57600080fd5b506100c86101f4565b005b3480156100d657600080fd5b506100df61032a565b604051808215151515815260200191505060405180910390f35b34801561010557600080fd5b5061010e61036a565b6040518082815260200191505060405180910390f35b34801561013057600080fd5b5061014f60048036038101908080359060200190929190505050610374565b005b34801561015d57600080fd5b50610192600480360381019080803573ffffffffffffffffffffffffffffffffffffffff1690602001909291905050506103fb565b005b3480156101a057600080fd5b506101a961043f565b604051808273ffffffffffffffffffffffffffffffffffffffff1673ffffffffffffffffffffffffffffffffffffffff16815260200191505060405180910390f35b60008054905090565b600260019054906101000a900473ffffffffffffffffffffffffffffffffffffffff1673ffffffffffffffffffffffffffffffffffffffff166366c991396001546040518263ffffffff167c010000000000000000000000000000000000000000000000000000000002815260040180828152602001915050600060405180830381600087803b15801561028757600080fd5b505af115801561029b573d6000803e3d6000fd5b50505050600260019054906101000a900473ffffffffffffffffffffffffffffffffffffffff1673ffffffffffffffffffffffffffffffffffffffff163073ffffffffffffffffffffffffffffffffffffffff167f3990db2d31862302a685e8086b5755072a6e2b5b780af1ee81ece35ee3cd33456001546040518082815260200191505060405180910390a3565b600060018081111561033857fe5b600260009054906101000a900460ff16600181111561035357fe5b14156103625760019050610367565b600090505b90565b6000600154905090565b60005481111561038657806001819055505b6000548114156103f8576001600260006101000a81548160ff021916908360018111156103af57fe5b02179055503073ffffffffffffffffffffffffffffffffffffffff167f68758e1a21f5de410f6334c49af614224750be888ba52da9aafbcb652a7455fa60405160405180910390a25b50565b80600260016101000a81548173ffffffffffffffffffffffffffffffffffffffff021916908373ffffffffffffffffffffffffffffffffffffffff16021790555050565b6000600260019054906101000a900473ffffffffffffffffffffffffffffffffffffffff169050905600a165627a7a72305820839c65656ad8ab24c5c6a6a024ed1ee8d657d9b11dd82bb20562d7db72dac64d0029",
  "source": "pragma solidity ^0.4.23;\n\ncontract lcr_node {\n    uint u;\n    uint send;\n    Status status;\n    \n    lcr_node private nextProcess;\n    \n    enum Status { unknown, leader }\n    \n    event Sent(address indexed _from, address indexed _to, uint val);\n    \n    event LeaderElected(address indexed _leader);\n    \n    constructor (uint _u)\n    public {\n        u = _u;\n        send = u;\n        status = Status.unknown;\n    }\n    \n    function setNextProcess(address _next) \n    public {\n        nextProcess = lcr_node(_next);\n    }\n    \n    function getNextProcess()\n    public\n    view\n    returns (address) {\n        return nextProcess;\n    }\n    \n    function msgFunction() \n    public {\n        nextProcess.trans(send);\n        emit Sent(this, nextProcess, send);\n    }\n    \n    function trans(uint _incoming)\n    public {\n        //The book says to set send := null here, but because I can't kick off all the processes\n        //at once, that won't work for me. Sending the UID of this node repeatedly\n        //shouldn't matter, though...\n        if (_incoming > u) {\n            send = _incoming;\n        } if (_incoming == u) {\n            status = Status.leader;\n            emit LeaderElected(this);\n        }\n    }\n    \n    function previewSend()\n    public\n    view\n    returns(uint){\n        return send;\n    }\n    \n    function getU() \n    public\n    view\n    returns(uint){\n        return u;\n    }\n    \n    function isLeader()\n    public\n    view\n    returns(bool) {\n        if(status == Status.leader) return true;\n        else return false;\n    }\n}",
  "sourcePath": "/Users/jamesvorderbruggen/Documents/Source/labs/lcr/contracts/lcr_node.sol",
  "compiler": {
    "name": "solc",
    "version": "0.4.23+commit.124ca40d.Emscripten.clang"
  },
  "schemaVersion": "2.0.0",
  "updatedAt": "2018-05-10T00:07:40.483Z"
}